{
  "contractName": "PoolifyChef",
  "abi": [
    {
      "inputs": [
        {
          "internalType": "contract PLFYToken",
          "name": "_plfy",
          "type": "address"
        },
        {
          "internalType": "uint256",
          "name": "_poolifyPerBlock",
          "type": "uint256"
        },
        {
          "internalType": "uint256",
          "name": "_startBlock",
          "type": "uint256"
        },
        {
          "internalType": "address",
          "name": "_devaddr",
          "type": "address"
        }
      ],
      "stateMutability": "nonpayable",
      "type": "constructor"
    },
    {
      "anonymous": false,
      "inputs": [
        {
          "indexed": true,
          "internalType": "address",
          "name": "user",
          "type": "address"
        },
        {
          "indexed": true,
          "internalType": "uint256",
          "name": "pid",
          "type": "uint256"
        },
        {
          "indexed": false,
          "internalType": "uint256",
          "name": "amount",
          "type": "uint256"
        }
      ],
      "name": "Deposit",
      "type": "event"
    },
    {
      "anonymous": false,
      "inputs": [
        {
          "indexed": true,
          "internalType": "address",
          "name": "user",
          "type": "address"
        },
        {
          "indexed": true,
          "internalType": "uint256",
          "name": "pid",
          "type": "uint256"
        },
        {
          "indexed": false,
          "internalType": "uint256",
          "name": "amount",
          "type": "uint256"
        }
      ],
      "name": "EmergencyWithdraw",
      "type": "event"
    },
    {
      "anonymous": false,
      "inputs": [
        {
          "indexed": true,
          "internalType": "address",
          "name": "user",
          "type": "address"
        },
        {
          "indexed": true,
          "internalType": "uint256",
          "name": "pid",
          "type": "uint256"
        },
        {
          "indexed": false,
          "internalType": "uint256",
          "name": "amount",
          "type": "uint256"
        }
      ],
      "name": "Harvest",
      "type": "event"
    },
    {
      "anonymous": false,
      "inputs": [],
      "name": "LogInit",
      "type": "event"
    },
    {
      "anonymous": false,
      "inputs": [
        {
          "indexed": true,
          "internalType": "uint256",
          "name": "pid",
          "type": "uint256"
        },
        {
          "indexed": false,
          "internalType": "uint256",
          "name": "allocPoint",
          "type": "uint256"
        },
        {
          "indexed": true,
          "internalType": "contract IERC20",
          "name": "lpToken",
          "type": "address"
        }
      ],
      "name": "LogPoolAddition",
      "type": "event"
    },
    {
      "anonymous": false,
      "inputs": [
        {
          "indexed": true,
          "internalType": "uint256",
          "name": "pid",
          "type": "uint256"
        },
        {
          "indexed": false,
          "internalType": "uint256",
          "name": "lastRewardBlock",
          "type": "uint256"
        },
        {
          "indexed": false,
          "internalType": "uint256",
          "name": "lpSupply",
          "type": "uint256"
        },
        {
          "indexed": false,
          "internalType": "uint256",
          "name": "accPoolifyPerShare",
          "type": "uint256"
        }
      ],
      "name": "LogUpdatePool",
      "type": "event"
    },
    {
      "anonymous": false,
      "inputs": [
        {
          "indexed": true,
          "internalType": "address",
          "name": "previousOwner",
          "type": "address"
        },
        {
          "indexed": true,
          "internalType": "address",
          "name": "newOwner",
          "type": "address"
        }
      ],
      "name": "OwnershipTransferred",
      "type": "event"
    },
    {
      "anonymous": false,
      "inputs": [
        {
          "indexed": true,
          "internalType": "address",
          "name": "user",
          "type": "address"
        },
        {
          "indexed": true,
          "internalType": "uint256",
          "name": "pid",
          "type": "uint256"
        },
        {
          "indexed": false,
          "internalType": "uint256",
          "name": "amount",
          "type": "uint256"
        }
      ],
      "name": "Withdraw",
      "type": "event"
    },
    {
      "inputs": [],
      "name": "BONUS_MULTIPLIER",
      "outputs": [
        {
          "internalType": "uint256",
          "name": "",
          "type": "uint256"
        }
      ],
      "stateMutability": "view",
      "type": "function",
      "constant": true
    },
    {
      "inputs": [],
      "name": "PLFY",
      "outputs": [
        {
          "internalType": "contract PLFYToken",
          "name": "",
          "type": "address"
        }
      ],
      "stateMutability": "view",
      "type": "function",
      "constant": true
    },
    {
      "inputs": [],
      "name": "devaddr",
      "outputs": [
        {
          "internalType": "address",
          "name": "",
          "type": "address"
        }
      ],
      "stateMutability": "view",
      "type": "function",
      "constant": true
    },
    {
      "inputs": [],
      "name": "owner",
      "outputs": [
        {
          "internalType": "address",
          "name": "",
          "type": "address"
        }
      ],
      "stateMutability": "view",
      "type": "function",
      "constant": true
    },
    {
      "inputs": [
        {
          "internalType": "uint256",
          "name": "",
          "type": "uint256"
        }
      ],
      "name": "poolInfo",
      "outputs": [
        {
          "internalType": "contract IERC20",
          "name": "lpToken",
          "type": "address"
        },
        {
          "internalType": "uint256",
          "name": "allocPoint",
          "type": "uint256"
        },
        {
          "internalType": "uint256",
          "name": "lastRewardBlock",
          "type": "uint256"
        },
        {
          "internalType": "uint256",
          "name": "accPoolifyPerShare",
          "type": "uint256"
        },
        {
          "internalType": "uint256",
          "name": "lpSupply",
          "type": "uint256"
        }
      ],
      "stateMutability": "view",
      "type": "function",
      "constant": true
    },
    {
      "inputs": [],
      "name": "poolifyPerBlock",
      "outputs": [
        {
          "internalType": "uint256",
          "name": "",
          "type": "uint256"
        }
      ],
      "stateMutability": "view",
      "type": "function",
      "constant": true
    },
    {
      "inputs": [],
      "name": "renounceOwnership",
      "outputs": [],
      "stateMutability": "nonpayable",
      "type": "function"
    },
    {
      "inputs": [
        {
          "internalType": "uint256",
          "name": "",
          "type": "uint256"
        }
      ],
      "name": "stakeTokens",
      "outputs": [
        {
          "internalType": "contract IERC20",
          "name": "",
          "type": "address"
        }
      ],
      "stateMutability": "view",
      "type": "function",
      "constant": true
    },
    {
      "inputs": [],
      "name": "startBlock",
      "outputs": [
        {
          "internalType": "uint256",
          "name": "",
          "type": "uint256"
        }
      ],
      "stateMutability": "view",
      "type": "function",
      "constant": true
    },
    {
      "inputs": [
        {
          "internalType": "address",
          "name": "newOwner",
          "type": "address"
        }
      ],
      "name": "transferOwnership",
      "outputs": [],
      "stateMutability": "nonpayable",
      "type": "function"
    },
    {
      "inputs": [
        {
          "internalType": "uint256",
          "name": "",
          "type": "uint256"
        },
        {
          "internalType": "address",
          "name": "",
          "type": "address"
        }
      ],
      "name": "userInfo",
      "outputs": [
        {
          "internalType": "uint256",
          "name": "amount",
          "type": "uint256"
        },
        {
          "internalType": "uint256",
          "name": "rewardDebt",
          "type": "uint256"
        }
      ],
      "stateMutability": "view",
      "type": "function",
      "constant": true
    },
    {
      "inputs": [],
      "name": "poolLength",
      "outputs": [
        {
          "internalType": "uint256",
          "name": "",
          "type": "uint256"
        }
      ],
      "stateMutability": "view",
      "type": "function",
      "constant": true
    },
    {
      "inputs": [
        {
          "internalType": "contract IERC20",
          "name": "_stakeToken",
          "type": "address"
        }
      ],
      "name": "isDuplicatedPool",
      "outputs": [
        {
          "internalType": "bool",
          "name": "",
          "type": "bool"
        }
      ],
      "stateMutability": "view",
      "type": "function",
      "constant": true
    },
    {
      "inputs": [
        {
          "internalType": "uint256",
          "name": "_poolifyPerBlock",
          "type": "uint256"
        }
      ],
      "name": "setPoolifyPerBlock",
      "outputs": [],
      "stateMutability": "nonpayable",
      "type": "function"
    },
    {
      "inputs": [
        {
          "internalType": "uint256",
          "name": "_allocPoint",
          "type": "uint256"
        },
        {
          "internalType": "contract IERC20",
          "name": "_stakeToken",
          "type": "address"
        },
        {
          "internalType": "bool",
          "name": "_withUpdate",
          "type": "bool"
        }
      ],
      "name": "addPool",
      "outputs": [],
      "stateMutability": "nonpayable",
      "type": "function"
    },
    {
      "inputs": [
        {
          "internalType": "uint256",
          "name": "_pid",
          "type": "uint256"
        },
        {
          "internalType": "uint256",
          "name": "_allocPoint",
          "type": "uint256"
        },
        {
          "internalType": "bool",
          "name": "_withUpdate",
          "type": "bool"
        }
      ],
      "name": "setPool",
      "outputs": [],
      "stateMutability": "nonpayable",
      "type": "function"
    },
    {
      "inputs": [
        {
          "internalType": "uint256",
          "name": "_pid",
          "type": "uint256"
        },
        {
          "internalType": "address",
          "name": "_user",
          "type": "address"
        }
      ],
      "name": "pendingPoolify",
      "outputs": [
        {
          "internalType": "uint256",
          "name": "",
          "type": "uint256"
        }
      ],
      "stateMutability": "view",
      "type": "function",
      "constant": true
    },
    {
      "inputs": [],
      "name": "massUpdatePools",
      "outputs": [],
      "stateMutability": "nonpayable",
      "type": "function"
    },
    {
      "inputs": [
        {
          "internalType": "uint256",
          "name": "_pid",
          "type": "uint256"
        }
      ],
      "name": "updatePool",
      "outputs": [],
      "stateMutability": "nonpayable",
      "type": "function"
    },
    {
      "inputs": [
        {
          "internalType": "uint256",
          "name": "_pid",
          "type": "uint256"
        },
        {
          "internalType": "uint256",
          "name": "_amount",
          "type": "uint256"
        }
      ],
      "name": "deposit",
      "outputs": [],
      "stateMutability": "nonpayable",
      "type": "function"
    },
    {
      "inputs": [
        {
          "internalType": "uint256",
          "name": "_pid",
          "type": "uint256"
        },
        {
          "internalType": "uint256",
          "name": "_amount",
          "type": "uint256"
        }
      ],
      "name": "withdraw",
      "outputs": [],
      "stateMutability": "nonpayable",
      "type": "function"
    },
    {
      "inputs": [
        {
          "internalType": "uint256",
          "name": "_pid",
          "type": "uint256"
        }
      ],
      "name": "emergencyWithdraw",
      "outputs": [],
      "stateMutability": "nonpayable",
      "type": "function"
    },
    {
      "inputs": [
        {
          "internalType": "uint256",
          "name": "_from",
          "type": "uint256"
        },
        {
          "internalType": "uint256",
          "name": "_to",
          "type": "uint256"
        }
      ],
      "name": "getMultiplier",
      "outputs": [
        {
          "internalType": "uint256",
          "name": "",
          "type": "uint256"
        }
      ],
      "stateMutability": "view",
      "type": "function",
      "constant": true
    },
    {
      "inputs": [
        {
          "internalType": "uint256",
          "name": "multiplierNumber",
          "type": "uint256"
        }
      ],
      "name": "updateMultiplier",
      "outputs": [],
      "stateMutability": "nonpayable",
      "type": "function"
    }
  ],
  "bytecode": "0x60a0604052600160045560006009553480156200001b57600080fd5b5060405162002e2038038062002e208339818101604052810190620000419190620003f6565b62000061620000556200024060201b60201c565b6200024860201b60201c565b600180819055508373ffffffffffffffffffffffffffffffffffffffff1660808173ffffffffffffffffffffffffffffffffffffffff1681525050826003819055508160078190555080600260006101000a81548173ffffffffffffffffffffffffffffffffffffffff021916908373ffffffffffffffffffffffffffffffffffffffff16021790555060056040518060a001604052808673ffffffffffffffffffffffffffffffffffffffff1681526020016103e881526020016007548152602001600081526020016000815250908060018154018082558091505060019003906000526020600020906005020160009091909190915060008201518160000160006101000a81548173ffffffffffffffffffffffffffffffffffffffff021916908373ffffffffffffffffffffffffffffffffffffffff1602179055506020820151816001015560408201518160020155606082015181600301556080820151816004015550506006849080600181540180825580915050600190039060005260206000200160009091909190916101000a81548173ffffffffffffffffffffffffffffffffffffffff021916908373ffffffffffffffffffffffffffffffffffffffff1602179055506103e86009819055505050505062000468565b600033905090565b60008060009054906101000a900473ffffffffffffffffffffffffffffffffffffffff169050816000806101000a81548173ffffffffffffffffffffffffffffffffffffffff021916908373ffffffffffffffffffffffffffffffffffffffff1602179055508173ffffffffffffffffffffffffffffffffffffffff168173ffffffffffffffffffffffffffffffffffffffff167f8be0079c531659141344cd1fd0a4f28419497f9722a3daafe3b4186f6b6457e060405160405180910390a35050565b600080fd5b600073ffffffffffffffffffffffffffffffffffffffff82169050919050565b60006200033e8262000311565b9050919050565b6000620003528262000331565b9050919050565b620003648162000345565b81146200037057600080fd5b50565b600081519050620003848162000359565b92915050565b6000819050919050565b6200039f816200038a565b8114620003ab57600080fd5b50565b600081519050620003bf8162000394565b92915050565b620003d08162000331565b8114620003dc57600080fd5b50565b600081519050620003f081620003c5565b92915050565b600080600080608085870312156200041357620004126200030c565b5b6000620004238782880162000373565b94505060206200043687828801620003ae565b93505060406200044987828801620003ae565b92505060606200045c87828801620003df565b91505092959194509250565b60805161298e620004926000396000818161069201528181610c4901526117cf015261298e6000f3fe608060405234801561001057600080fd5b50600436106101585760003560e01c8063715018a6116100c357806393f1a40b1161007c57806393f1a40b1461038f578063b03df69d146103c0578063d49e77cd146103f0578063e2bbb1581461040e578063ef4e18fe1461042a578063f2fde38b1461044857610158565b8063715018a6146102cd5780637547c7a3146102d75780637abceffd146103075780638aa28550146103235780638da5cb5b146103415780638dbb1e3a1461035f57610158565b806346ca6bea1161011557806346ca6bea1461023557806348cd4cb11461025157806351eb05a61461026f5780635312ea8e1461028b5780635ffe6146146102a7578063630b5ba1146102c357610158565b8063081e3eda1461015d57806308571c901461017b5780630d5998a2146101ab5780631526fe27146101c95780631a3e8775146101fd578063441a3e7014610219575b600080fd5b610165610464565b6040516101729190611d87565b60405180910390f35b61019560048036038101906101909190611e31565b610471565b6040516101a29190611d87565b60405180910390f35b6101b3610690565b6040516101c09190611ed0565b60405180910390f35b6101e360048036038101906101de9190611eeb565b6106b4565b6040516101f4959493929190611f39565b60405180910390f35b61021760048036038101906102129190611eeb565b61071a565b005b610233600480360381019061022e9190611f8c565b6107a0565b005b61024f600480360381019061024a9190612004565b610a4c565b005b610259610b93565b6040516102669190611d87565b60405180910390f35b61028960048036038101906102849190611eeb565b610b99565b005b6102a560048036038101906102a09190611eeb565b610d75565b005b6102c160048036038101906102bc9190611eeb565b610f03565b005b6102cb610f89565b005b6102d5610fbc565b005b6102f160048036038101906102ec9190611eeb565b611044565b6040516102fe9190612057565b60405180910390f35b610321600480360381019061031c91906120b0565b611083565b005b61032b61128c565b6040516103389190611d87565b60405180910390f35b610349611292565b6040516103569190612112565b60405180910390f35b61037960048036038101906103749190611f8c565b6112bb565b6040516103869190611d87565b60405180910390f35b6103a960048036038101906103a49190611e31565b6112ec565b6040516103b792919061212d565b60405180910390f35b6103da60048036038101906103d59190612156565b61131d565b6040516103e79190612192565b60405180910390f35b6103f86113cf565b6040516104059190612112565b60405180910390f35b61042860048036038101906104239190611f8c565b6113f5565b005b61043261166a565b60405161043f9190611d87565b60405180910390f35b610462600480360381019061045d91906121ad565b611670565b005b6000600580549050905090565b60008060058481548110610488576104876121da565b5b90600052602060002090600502016040518060a00160405290816000820160009054906101000a900473ffffffffffffffffffffffffffffffffffffffff1673ffffffffffffffffffffffffffffffffffffffff1673ffffffffffffffffffffffffffffffffffffffff168152602001600182015481526020016002820154815260200160038201548152602001600482015481525050905060006008600086815260200190815260200160002060008573ffffffffffffffffffffffffffffffffffffffff1673ffffffffffffffffffffffffffffffffffffffff168152602001908152602001600020905060008260600151905060008360800151905083604001514311801561059b575060008114155b156106395760006105b08560400151436112bb565b905060006105f36009546105e588602001516105d76003548761176890919063ffffffff16565b61176890919063ffffffff16565b61177e90919063ffffffff16565b905061063461062584610617670de0b6b3a76400008561176890919063ffffffff16565b61177e90919063ffffffff16565b8561179490919063ffffffff16565b935050505b6106848360010154610676670de0b6b3a76400006106688860600151886000015461176890919063ffffffff16565b61177e90919063ffffffff16565b6117aa90919063ffffffff16565b94505050505092915050565b7f000000000000000000000000000000000000000000000000000000000000000081565b600581815481106106c457600080fd5b90600052602060002090600502016000915090508060000160009054906101000a900473ffffffffffffffffffffffffffffffffffffffff16908060010154908060020154908060030154908060040154905085565b6107226117c0565b73ffffffffffffffffffffffffffffffffffffffff16610740611292565b73ffffffffffffffffffffffffffffffffffffffff1614610796576040517f08c379a000000000000000000000000000000000000000000000000000000000815260040161078d90612266565b60405180910390fd5b8060038190555050565b600260015414156107e6576040517f08c379a00000000000000000000000000000000000000000000000000000000081526004016107dd906122d2565b60405180910390fd5b6002600181905550600060058381548110610804576108036121da565b5b9060005260206000209060050201905060006008600085815260200190815260200160002060003373ffffffffffffffffffffffffffffffffffffffff1673ffffffffffffffffffffffffffffffffffffffff168152602001908152602001600020905082816000015410156108af576040517f08c379a00000000000000000000000000000000000000000000000000000000081526004016108a69061233e565b60405180910390fd5b6108b884610b99565b600061090582600101546108f7670de0b6b3a76400006108e98760030154876000015461176890919063ffffffff16565b61177e90919063ffffffff16565b6117aa90919063ffffffff16565b9050600081111561091b5761091a33826117c8565b5b60008411156109b25761093b8483600001546117aa90919063ffffffff16565b826000018190555061095a8484600401546117aa90919063ffffffff16565b83600401819055506109b133858560000160009054906101000a900473ffffffffffffffffffffffffffffffffffffffff1673ffffffffffffffffffffffffffffffffffffffff166118179092919063ffffffff16565b5b6109e7670de0b6b3a76400006109d98560030154856000015461176890919063ffffffff16565b61177e90919063ffffffff16565b8260010181905550843373ffffffffffffffffffffffffffffffffffffffff167ff279e6a1f5e320cca91135676d9cb6e44ca8a08c0b88342bcdb1144f6511b56886604051610a369190611d87565b60405180910390a3505050600180819055505050565b610a546117c0565b73ffffffffffffffffffffffffffffffffffffffff16610a72611292565b73ffffffffffffffffffffffffffffffffffffffff1614610ac8576040517f08c379a0000000000000000000000000000000000000000000000000000000008152600401610abf90612266565b60405180910390fd5b8015610ad757610ad6610f89565b5b610b2382610b1560058681548110610af257610af16121da565b5b9060005260206000209060050201600101546009546117aa90919063ffffffff16565b61179490919063ffffffff16565b600981905550600060058481548110610b3f57610b3e6121da565b5b90600052602060002090600502016001015490508260058581548110610b6857610b676121da565b5b906000526020600020906005020160010181905550828114610b8d57610b8c61189d565b5b50505050565b60075481565b600060058281548110610baf57610bae6121da565b5b9060005260206000209060050201905080600201544311610bd05750610d72565b6000816004015490506000811415610bf2574382600201819055505050610d72565b6000610c028360020154436112bb565b90506000610c45600954610c378660010154610c296003548761176890919063ffffffff16565b61176890919063ffffffff16565b61177e90919063ffffffff16565b90507f000000000000000000000000000000000000000000000000000000000000000073ffffffffffffffffffffffffffffffffffffffff166340c10f1930836040518363ffffffff1660e01b8152600401610ca292919061235e565b600060405180830381600087803b158015610cbc57600080fd5b505af1158015610cd0573d6000803e3d6000fd5b50505050610d17610d0484610cf6670de0b6b3a76400008561176890919063ffffffff16565b61177e90919063ffffffff16565b856003015461179490919063ffffffff16565b8460030181905550438460020181905550847fcb7325664a4a3b7c7223eefc492a97ca4fdf94d46884621e5a8fae5a04b2b9d2856002015460008760030154604051610d65939291906123c2565b60405180910390a2505050505b50565b60026001541415610dbb576040517f08c379a0000000000000000000000000000000000000000000000000000000008152600401610db2906122d2565b60405180910390fd5b6002600181905550600060058281548110610dd957610dd86121da565b5b9060005260206000209060050201905060006008600084815260200190815260200160002060003373ffffffffffffffffffffffffffffffffffffffff1673ffffffffffffffffffffffffffffffffffffffff1681526020019081526020016000209050610e903382600001548460000160009054906101000a900473ffffffffffffffffffffffffffffffffffffffff1673ffffffffffffffffffffffffffffffffffffffff166118179092919063ffffffff16565b6000816000018190555060008160010181905550823373ffffffffffffffffffffffffffffffffffffffff167fbb757047c2b5f3974fe26b7c10f732e7bce710b0952a71082702781e62ae05958360000154604051610eef9190611d87565b60405180910390a350506001808190555050565b610f0b6117c0565b73ffffffffffffffffffffffffffffffffffffffff16610f29611292565b73ffffffffffffffffffffffffffffffffffffffff1614610f7f576040517f08c379a0000000000000000000000000000000000000000000000000000000008152600401610f7690612266565b60405180910390fd5b8060048190555050565b6000600580549050905060005b81811015610fb857610fa781610b99565b80610fb190612428565b9050610f96565b5050565b610fc46117c0565b73ffffffffffffffffffffffffffffffffffffffff16610fe2611292565b73ffffffffffffffffffffffffffffffffffffffff1614611038576040517f08c379a000000000000000000000000000000000000000000000000000000000815260040161102f90612266565b60405180910390fd5b61104260006119a4565b565b6006818154811061105457600080fd5b906000526020600020016000915054906101000a900473ffffffffffffffffffffffffffffffffffffffff1681565b61108b6117c0565b73ffffffffffffffffffffffffffffffffffffffff166110a9611292565b73ffffffffffffffffffffffffffffffffffffffff16146110ff576040517f08c379a00000000000000000000000000000000000000000000000000000000081526004016110f690612266565b60405180910390fd5b801561110e5761110d610f89565b5b6000600754431161112157600754611123565b435b905061113a8460095461179490919063ffffffff16565b60098190555060056040518060a001604052808573ffffffffffffffffffffffffffffffffffffffff168152602001868152602001838152602001600081526020016000815250908060018154018082558091505060019003906000526020600020906005020160009091909190915060008201518160000160006101000a81548173ffffffffffffffffffffffffffffffffffffffff021916908373ffffffffffffffffffffffffffffffffffffffff1602179055506020820151816001015560408201518160020155606082015181600301556080820151816004015550506006839080600181540180825580915050600190039060005260206000200160009091909190916101000a81548173ffffffffffffffffffffffffffffffffffffffff021916908373ffffffffffffffffffffffffffffffffffffffff16021790555061128661189d565b50505050565b60045481565b60008060009054906101000a900473ffffffffffffffffffffffffffffffffffffffff16905090565b60006112e46004546112d685856117aa90919063ffffffff16565b61176890919063ffffffff16565b905092915050565b6008602052816000526040600020602052806000526040600020600091509150508060000154908060010154905082565b600080600680549050905060005b818110156113c3578373ffffffffffffffffffffffffffffffffffffffff166006828154811061135e5761135d6121da565b5b9060005260206000200160009054906101000a900473ffffffffffffffffffffffffffffffffffffffff1673ffffffffffffffffffffffffffffffffffffffff1614156113b0576001925050506113ca565b80806113bb90612428565b91505061132b565b5060009150505b919050565b600260009054906101000a900473ffffffffffffffffffffffffffffffffffffffff1681565b6002600154141561143b576040517f08c379a0000000000000000000000000000000000000000000000000000000008152600401611432906122d2565b60405180910390fd5b6002600181905550600060058381548110611459576114586121da565b5b9060005260206000209060050201905060006008600085815260200190815260200160002060003373ffffffffffffffffffffffffffffffffffffffff1673ffffffffffffffffffffffffffffffffffffffff16815260200190815260200160002090506114c684610b99565b6000816000015411156115385760006115208260010154611512670de0b6b3a76400006115048760030154876000015461176890919063ffffffff16565b61177e90919063ffffffff16565b6117aa90919063ffffffff16565b905060008111156115365761153533826117c8565b5b505b60008311156115d1576115923330858560000160009054906101000a900473ffffffffffffffffffffffffffffffffffffffff1673ffffffffffffffffffffffffffffffffffffffff16611a68909392919063ffffffff16565b6115a983836004015461179490919063ffffffff16565b82600401819055506115c883826000015461179490919063ffffffff16565b81600001819055505b611606670de0b6b3a76400006115f88460030154846000015461176890919063ffffffff16565b61177e90919063ffffffff16565b8160010181905550833373ffffffffffffffffffffffffffffffffffffffff167f90890809c654f11d6e72a28fa60149770a0d11ec6c92319d6ceb2bb0a4ea1a15856040516116559190611d87565b60405180910390a35050600180819055505050565b60035481565b6116786117c0565b73ffffffffffffffffffffffffffffffffffffffff16611696611292565b73ffffffffffffffffffffffffffffffffffffffff16146116ec576040517f08c379a00000000000000000000000000000000000000000000000000000000081526004016116e390612266565b60405180910390fd5b600073ffffffffffffffffffffffffffffffffffffffff168173ffffffffffffffffffffffffffffffffffffffff16141561175c576040517f08c379a0000000000000000000000000000000000000000000000000000000008152600401611753906124e3565b60405180910390fd5b611765816119a4565b50565b600081836117769190612503565b905092915050565b6000818361178c919061258c565b905092915050565b600081836117a291906125bd565b905092915050565b600081836117b89190612613565b905092915050565b600033905090565b61181382827f000000000000000000000000000000000000000000000000000000000000000073ffffffffffffffffffffffffffffffffffffffff166118179092919063ffffffff16565b5050565b6118988363a9059cbb60e01b848460405160240161183692919061235e565b604051602081830303815290604052907bffffffffffffffffffffffffffffffffffffffffffffffffffffffff19166020820180517bffffffffffffffffffffffffffffffffffffffffffffffffffffffff8381831617835250505050611af1565b505050565b60006005805490509050600080600190505b82811015611902576118ef600582815481106118ce576118cd6121da565b5b9060005260206000209060050201600101548361179490919063ffffffff16565b9150806118fb90612428565b90506118af565b50600081146119a05761191f60038261177e90919063ffffffff16565b905061196e81611960600560008154811061193d5761193c6121da565b5b9060005260206000209060050201600101546009546117aa90919063ffffffff16565b61179490919063ffffffff16565b60098190555080600560008154811061198a576119896121da565b5b9060005260206000209060050201600101819055505b5050565b60008060009054906101000a900473ffffffffffffffffffffffffffffffffffffffff169050816000806101000a81548173ffffffffffffffffffffffffffffffffffffffff021916908373ffffffffffffffffffffffffffffffffffffffff1602179055508173ffffffffffffffffffffffffffffffffffffffff168173ffffffffffffffffffffffffffffffffffffffff167f8be0079c531659141344cd1fd0a4f28419497f9722a3daafe3b4186f6b6457e060405160405180910390a35050565b611aeb846323b872dd60e01b858585604051602401611a8993929190612647565b604051602081830303815290604052907bffffffffffffffffffffffffffffffffffffffffffffffffffffffff19166020820180517bffffffffffffffffffffffffffffffffffffffffffffffffffffffff8381831617835250505050611af1565b50505050565b6000611b53826040518060400160405280602081526020017f5361666545524332303a206c6f772d6c6576656c2063616c6c206661696c65648152508573ffffffffffffffffffffffffffffffffffffffff16611bb89092919063ffffffff16565b9050600081511115611bb35780806020019051810190611b739190612693565b611bb2576040517f08c379a0000000000000000000000000000000000000000000000000000000008152600401611ba990612732565b60405180910390fd5b5b505050565b6060611bc78484600085611bd0565b90509392505050565b606082471015611c15576040517f08c379a0000000000000000000000000000000000000000000000000000000008152600401611c0c906127c4565b60405180910390fd5b611c1e85611ce4565b611c5d576040517f08c379a0000000000000000000000000000000000000000000000000000000008152600401611c5490612830565b60405180910390fd5b6000808673ffffffffffffffffffffffffffffffffffffffff168587604051611c8691906128ca565b60006040518083038185875af1925050503d8060008114611cc3576040519150601f19603f3d011682016040523d82523d6000602084013e611cc8565b606091505b5091509150611cd8828286611d07565b92505050949350505050565b6000808273ffffffffffffffffffffffffffffffffffffffff163b119050919050565b60608315611d1757829050611d67565b600083511115611d2a5782518084602001fd5b816040517f08c379a0000000000000000000000000000000000000000000000000000000008152600401611d5e9190612936565b60405180910390fd5b9392505050565b6000819050919050565b611d8181611d6e565b82525050565b6000602082019050611d9c6000830184611d78565b92915050565b600080fd5b611db081611d6e565b8114611dbb57600080fd5b50565b600081359050611dcd81611da7565b92915050565b600073ffffffffffffffffffffffffffffffffffffffff82169050919050565b6000611dfe82611dd3565b9050919050565b611e0e81611df3565b8114611e1957600080fd5b50565b600081359050611e2b81611e05565b92915050565b60008060408385031215611e4857611e47611da2565b5b6000611e5685828601611dbe565b9250506020611e6785828601611e1c565b9150509250929050565b6000819050919050565b6000611e96611e91611e8c84611dd3565b611e71565b611dd3565b9050919050565b6000611ea882611e7b565b9050919050565b6000611eba82611e9d565b9050919050565b611eca81611eaf565b82525050565b6000602082019050611ee56000830184611ec1565b92915050565b600060208284031215611f0157611f00611da2565b5b6000611f0f84828501611dbe565b91505092915050565b6000611f2382611e9d565b9050919050565b611f3381611f18565b82525050565b600060a082019050611f4e6000830188611f2a565b611f5b6020830187611d78565b611f686040830186611d78565b611f756060830185611d78565b611f826080830184611d78565b9695505050505050565b60008060408385031215611fa357611fa2611da2565b5b6000611fb185828601611dbe565b9250506020611fc285828601611dbe565b9150509250929050565b60008115159050919050565b611fe181611fcc565b8114611fec57600080fd5b50565b600081359050611ffe81611fd8565b92915050565b60008060006060848603121561201d5761201c611da2565b5b600061202b86828701611dbe565b935050602061203c86828701611dbe565b925050604061204d86828701611fef565b9150509250925092565b600060208201905061206c6000830184611f2a565b92915050565b600061207d82611df3565b9050919050565b61208d81612072565b811461209857600080fd5b50565b6000813590506120aa81612084565b92915050565b6000806000606084860312156120c9576120c8611da2565b5b60006120d786828701611dbe565b93505060206120e88682870161209b565b92505060406120f986828701611fef565b9150509250925092565b61210c81611df3565b82525050565b60006020820190506121276000830184612103565b92915050565b60006040820190506121426000830185611d78565b61214f6020830184611d78565b9392505050565b60006020828403121561216c5761216b611da2565b5b600061217a8482850161209b565b91505092915050565b61218c81611fcc565b82525050565b60006020820190506121a76000830184612183565b92915050565b6000602082840312156121c3576121c2611da2565b5b60006121d184828501611e1c565b91505092915050565b7f4e487b7100000000000000000000000000000000000000000000000000000000600052603260045260246000fd5b600082825260208201905092915050565b7f4f776e61626c653a2063616c6c6572206973206e6f7420746865206f776e6572600082015250565b6000612250602083612209565b915061225b8261221a565b602082019050919050565b6000602082019050818103600083015261227f81612243565b9050919050565b7f5265656e7472616e637947756172643a207265656e7472616e742063616c6c00600082015250565b60006122bc601f83612209565b91506122c782612286565b602082019050919050565b600060208201905081810360008301526122eb816122af565b9050919050565b7f77697468647261773a206e6f7420676f6f640000000000000000000000000000600082015250565b6000612328601283612209565b9150612333826122f2565b602082019050919050565b600060208201905081810360008301526123578161231b565b9050919050565b60006040820190506123736000830185612103565b6123806020830184611d78565b9392505050565b6000819050919050565b60006123ac6123a76123a284612387565b611e71565b611d6e565b9050919050565b6123bc81612391565b82525050565b60006060820190506123d76000830186611d78565b6123e460208301856123b3565b6123f16040830184611d78565b949350505050565b7f4e487b7100000000000000000000000000000000000000000000000000000000600052601160045260246000fd5b600061243382611d6e565b91507fffffffffffffffffffffffffffffffffffffffffffffffffffffffffffffffff821415612466576124656123f9565b5b600182019050919050565b7f4f776e61626c653a206e6577206f776e657220697320746865207a65726f206160008201527f6464726573730000000000000000000000000000000000000000000000000000602082015250565b60006124cd602683612209565b91506124d882612471565b604082019050919050565b600060208201905081810360008301526124fc816124c0565b9050919050565b600061250e82611d6e565b915061251983611d6e565b9250817fffffffffffffffffffffffffffffffffffffffffffffffffffffffffffffffff0483118215151615612552576125516123f9565b5b828202905092915050565b7f4e487b7100000000000000000000000000000000000000000000000000000000600052601260045260246000fd5b600061259782611d6e565b91506125a283611d6e565b9250826125b2576125b161255d565b5b828204905092915050565b60006125c882611d6e565b91506125d383611d6e565b9250827fffffffffffffffffffffffffffffffffffffffffffffffffffffffffffffffff03821115612608576126076123f9565b5b828201905092915050565b600061261e82611d6e565b915061262983611d6e565b92508282101561263c5761263b6123f9565b5b828203905092915050565b600060608201905061265c6000830186612103565b6126696020830185612103565b6126766040830184611d78565b949350505050565b60008151905061268d81611fd8565b92915050565b6000602082840312156126a9576126a8611da2565b5b60006126b78482850161267e565b91505092915050565b7f5361666545524332303a204552433230206f7065726174696f6e20646964206e60008201527f6f74207375636365656400000000000000000000000000000000000000000000602082015250565b600061271c602a83612209565b9150612727826126c0565b604082019050919050565b6000602082019050818103600083015261274b8161270f565b9050919050565b7f416464726573733a20696e73756666696369656e742062616c616e636520666f60008201527f722063616c6c0000000000000000000000000000000000000000000000000000602082015250565b60006127ae602683612209565b91506127b982612752565b604082019050919050565b600060208201905081810360008301526127dd816127a1565b9050919050565b7f416464726573733a2063616c6c20746f206e6f6e2d636f6e7472616374000000600082015250565b600061281a601d83612209565b9150612825826127e4565b602082019050919050565b600060208201905081810360008301526128498161280d565b9050919050565b600081519050919050565b600081905092915050565b60005b83811015612884578082015181840152602081019050612869565b83811115612893576000848401525b50505050565b60006128a482612850565b6128ae818561285b565b93506128be818560208601612866565b80840191505092915050565b60006128d68284612899565b915081905092915050565b600081519050919050565b6000601f19601f8301169050919050565b6000612908826128e1565b6129128185612209565b9350612922818560208601612866565b61292b816128ec565b840191505092915050565b6000602082019050818103600083015261295081846128fd565b90509291505056fea2646970667358221220e46574f1f5432838d9216c5eb889c304cfb43e9ac6ef1a59c51f724d201256c564736f6c634300080b0033",
  "immutableReferences": {
    "12854": [
      {
        "length": 32,
        "start": 1682
      },
      {
        "length": 32,
        "start": 3145
      },
      {
        "length": 32,
        "start": 6095
      }
    ]
  },
  "source": "// SPDX-License-Identifier: MIT\npragma solidity ^0.8.2;\nimport \"hardhat/console.sol\";\n\nimport \"@openzeppelin/contracts/utils/math/SafeMath.sol\";\nimport \"@openzeppelin/contracts/access/Ownable.sol\";\nimport \"@openzeppelin/contracts/token/ERC20/IERC20.sol\";\nimport \"@openzeppelin/contracts/token/ERC20/utils/SafeERC20.sol\";\nimport \"@openzeppelin/contracts/security/ReentrancyGuard.sol\";\nimport \"../tokens/PLFYToken.sol\";\n\n/*\n    Similar to pancake swap contract : masterChef.\n    The main role of this contract is to mint and distributes the PLFY from the staking wallet\n*/\n\ncontract PoolifyChef is Ownable, ReentrancyGuard {\n    using SafeMath for uint256;\n    using SafeERC20 for IERC20;\n\n    // Info of each user.\n    struct UserInfo {\n        uint256 amount; // How many Staking tokens the user has provided.\n        uint256 rewardDebt; // Reward debt. See explanation below.\n    }\n\n    // Info of each pool.\n    struct PoolInfo {\n        IERC20 lpToken;\n        uint256 allocPoint; // How many allocation points assigned to this pool. PLFY to distribute per block.\n        uint256 lastRewardBlock; // Last block number that PLFY distribution occurs.\n        uint256 accPoolifyPerShare; // Accumulated PLFY per share, times 1e18. See below.\n        uint256 lpSupply; // We do this so we can directly calculate the pending rewards\n    }\n\n    /// @notice The Poolify ERC-20 contract.\n    PLFYToken public immutable PLFY;\n\n    // Dev address.\n    address public devaddr;\n\n    // PLFY tokens created per block.\n    uint256 public poolifyPerBlock;\n\n    // Bonus muliplier for early plfy makers.\n    uint256 public BONUS_MULTIPLIER = 1;\n\n    /// @notice Info of each pool.\n    PoolInfo[] public poolInfo;\n\n    /// @notice Address of the ERC-20 for each Pool.\n    IERC20[] public stakeTokens;\n    \n    // The block number when PLFY mining starts.\n    uint256 public startBlock;\n\n\n    \n\n    /// @notice Info of each user that stakes tokens.\n    mapping (uint256 => mapping (address => UserInfo)) public userInfo;\n\n    /// @dev Total allocation points. Must be the sum of all allocation points in all pools.\n    uint256 totalAllocPoint = 0;\n\n    uint256 private constant ACC_PLFY_PRECISION = 1e18;\n\n    event Deposit(address indexed user, uint256 indexed pid, uint256 amount);\n    event Withdraw(address indexed user, uint256 indexed pid, uint256 amount);\n    event EmergencyWithdraw(address indexed user, uint256 indexed pid, uint256 amount);\n    event Harvest(address indexed user, uint256 indexed pid, uint256 amount);\n    event LogPoolAddition(uint256 indexed pid, uint256 allocPoint, IERC20 indexed lpToken);\n    event LogUpdatePool(uint256 indexed pid, uint256 lastRewardBlock, uint256 lpSupply, uint256 accPoolifyPerShare);\n    event LogInit();\n\n\n\n    /// @param _plfy the POOLIFY Token\n    /// @param _poolifyPerBlock number of PLFY per block\n    constructor(PLFYToken _plfy, uint256 _poolifyPerBlock,uint256 _startBlock,address _devaddr) {\n        PLFY = _plfy;\n        poolifyPerBlock = _poolifyPerBlock;\n        startBlock = _startBlock;\n        devaddr = _devaddr;\n\n        // Initial Staking pool\n        poolInfo.push(PoolInfo({\n            lpToken: _plfy,\n            allocPoint: 1000,\n            lastRewardBlock: startBlock,\n            accPoolifyPerShare: 0,\n            lpSupply : 0\n        }));\n        stakeTokens.push(_plfy);\n\n        totalAllocPoint = 1000;\n    }\n\n\n\n\n\n    /// @notice Returns the number of pools.\n    function poolLength() external view returns (uint256) {\n        return poolInfo.length;\n    }\n\n    /// @notice Returns if stakeToken is duplicated\n    function isDuplicatedPool(IERC20 _stakeToken) public view returns (bool) {\n        uint256 length = stakeTokens.length;\n        for(uint256 _pid = 0; _pid < length; _pid++) {\n            if(stakeTokens[_pid] == _stakeToken) return true;\n        }\n        return false;\n    }\n\n\n    /// @notice set the number of PLFY per block\n    function setPoolifyPerBlock(uint256 _poolifyPerBlock) external onlyOwner {\n        poolifyPerBlock = _poolifyPerBlock;\n    }\n\n    function addPool(uint256 _allocPoint, IERC20 _stakeToken, bool _withUpdate) public onlyOwner {\n        if (_withUpdate) {\n            massUpdatePools();\n        }\n        uint256 lastRewardBlock = block.number > startBlock ? block.number : startBlock;\n\n        totalAllocPoint = totalAllocPoint.add(_allocPoint);\n\n        poolInfo.push(PoolInfo({\n            lpToken: _stakeToken,\n            allocPoint: _allocPoint,\n            lastRewardBlock: lastRewardBlock,\n            accPoolifyPerShare: 0,\n            lpSupply : 0\n        }));\n        stakeTokens.push(_stakeToken);\n\n        recalculateAllocation();\n    }\n\n\n    // Update the given pool's PLFY allocation point. Can only be called by the owner.\n    function setPool(uint256 _pid, uint256 _allocPoint, bool _withUpdate) public onlyOwner {\n        if (_withUpdate) {\n            massUpdatePools();\n        }\n        totalAllocPoint = totalAllocPoint.sub(poolInfo[_pid].allocPoint).add(_allocPoint);\n        uint256 prevAllocPoint = poolInfo[_pid].allocPoint;\n        poolInfo[_pid].allocPoint = _allocPoint;\n        if (prevAllocPoint != _allocPoint) {\n            recalculateAllocation();\n        }\n    }\n\n     function recalculateAllocation() internal {\n        uint256 length = poolInfo.length;\n        uint256 points = 0;\n        for (uint256 pid = 1; pid < length; ++pid) {\n            points = points.add(poolInfo[pid].allocPoint);\n        }\n        if (points != 0) {\n            points = points.div(3);\n            totalAllocPoint = totalAllocPoint.sub(poolInfo[0].allocPoint).add(points);\n            poolInfo[0].allocPoint = points;\n        }\n    }\n\n    /// @notice View function to see pending PLFY on frontend.\n    /// @param _pid The index of the pool. See `poolInfo`.\n    /// @param _user address of user\n    function pendingPoolify(uint256 _pid, address _user) external view returns (uint256) {\n        PoolInfo memory pool = poolInfo[_pid];\n        UserInfo storage user = userInfo[_pid][_user];\n\n        uint256 accPoolifyPerShare = pool.accPoolifyPerShare;\n        uint256 lpSupply           = pool.lpSupply; //pool.lpToken.balanceOf(address(this));\n        if (block.number > pool.lastRewardBlock && lpSupply != 0) {\n            uint256 multiplier = getMultiplier(pool.lastRewardBlock, block.number);\n            uint256 poolifyReward = multiplier.mul(poolifyPerBlock).mul(pool.allocPoint).div(totalAllocPoint);\n            accPoolifyPerShare = accPoolifyPerShare.add(poolifyReward.mul(ACC_PLFY_PRECISION).div(lpSupply));\n        }\n        return user.amount.mul(pool.accPoolifyPerShare).div(ACC_PLFY_PRECISION).sub(user.rewardDebt);\n    }\n\n    // Update reward variables for all pools. Be careful of gas spending!\n    function massUpdatePools() public {\n        uint256 length = poolInfo.length;\n        for (uint256 pid = 0; pid < length; ++pid) {\n            updatePool(pid);\n        }\n    }\n\n    // Update reward variables of the given pool to be up-to-date.\n    function updatePool(uint256 _pid) public {\n        PoolInfo storage pool = poolInfo[_pid];\n        if (block.number <= pool.lastRewardBlock) {\n            return;\n        }\n\n        uint256 lpSupply = pool.lpSupply; //pool.lpToken.balanceOf(address(this));\n        if (lpSupply == 0) {\n            pool.lastRewardBlock = block.number;\n            return;\n        }\n\n        uint256 multiplier = getMultiplier(pool.lastRewardBlock, block.number);\n        uint256 poolifyReward = multiplier\n                    .mul(poolifyPerBlock)\n                    .mul(pool.allocPoint)\n                    .div(totalAllocPoint);\n\n        //PLFY.mint(devaddr, poolifyReward.div(10)); // 10% of the rewards to the DEV wallet\n        PLFY.mint(address(this), poolifyReward);  \n        \n        pool.accPoolifyPerShare = pool.accPoolifyPerShare.add(poolifyReward.mul(ACC_PLFY_PRECISION).div(lpSupply));\n        pool.lastRewardBlock = block.number;\n        emit LogUpdatePool(_pid, pool.lastRewardBlock, 0, pool.accPoolifyPerShare);\n    }\n\n\n    /// @notice Deposit LP tokens to Poolify Factory for PLFY allocation.\n    /// @param _pid The index of the pool. See `poolInfo`.\n    /// @param _amount to deposit.\n    function deposit(uint256 _pid, uint256 _amount) external nonReentrant {\n        PoolInfo storage pool = poolInfo[_pid];\n        UserInfo storage user = userInfo[_pid][msg.sender];\n\n        updatePool(_pid);\n        if (user.amount > 0) {\n            \n            uint256 pending = user.amount.mul(pool.accPoolifyPerShare).div(ACC_PLFY_PRECISION).sub(user.rewardDebt);\n            if(pending > 0) {\n                safePoolifyTransfer(msg.sender, pending);\n            }\n        }\n        if (_amount > 0) {\n            pool.lpToken.safeTransferFrom(address(msg.sender), address(this), _amount);\n            pool.lpSupply = pool.lpSupply.add(_amount);\n            user.amount = user.amount.add(_amount);\n        }\n        user.rewardDebt = user.amount.mul(pool.accPoolifyPerShare).div(ACC_PLFY_PRECISION);\n        emit Deposit(msg.sender, _pid, _amount);\n    }\n\n    /// @notice Withdraw LP tokens from MasterChef.\n    /// @param _pid The index of the pool. See `poolInfo`.\n    /// @param _amount of lp tokens to withdraw.\n    function withdraw(uint256 _pid, uint256 _amount) external nonReentrant {\n        PoolInfo storage pool = poolInfo[_pid];\n        UserInfo storage user = userInfo[_pid][msg.sender];\n        require(user.amount >= _amount, \"withdraw: not good\");\n\n        updatePool(_pid);\n        uint256 pending = user.amount.mul(pool.accPoolifyPerShare).div(ACC_PLFY_PRECISION).sub(user.rewardDebt);\n        if(pending > 0) {\n            safePoolifyTransfer(msg.sender, pending);\n        }\n        if(_amount > 0) {\n            user.amount = user.amount.sub(_amount);\n            pool.lpSupply = pool.lpSupply.sub(_amount);\n            pool.lpToken.safeTransfer(address(msg.sender), _amount);\n        }\n        user.rewardDebt = user.amount.mul(pool.accPoolifyPerShare).div(ACC_PLFY_PRECISION);\n        emit Withdraw(msg.sender, _pid, _amount);\n    }\n\n\n    /// @notice Withdraw without caring about rewards. EMERGENCY ONLY.\n    /// @param _pid The index of the pool. See `poolInfo`.\n    function emergencyWithdraw(uint256 _pid) external nonReentrant {\n        PoolInfo storage pool = poolInfo[_pid];\n        UserInfo storage user = userInfo[_pid][msg.sender];\n\n        pool.lpToken.safeTransfer(address(msg.sender), user.amount);\n        user.amount = 0;\n        user.rewardDebt = 0;\n        \n        emit EmergencyWithdraw(msg.sender, _pid, user.amount);\n    }\n\n    /// @notice Safe Poolify transfer function, just in case if rounding error causes pool to not have enough PLFYs.\n    function safePoolifyTransfer(address _to, uint256 _amount) internal {\n        IERC20(PLFY).safeTransfer(_to, _amount);\n    }\n\n    // Return reward multiplier over the given _from to _to block.\n    function getMultiplier(uint256 _from, uint256 _to) public view returns (uint256) {\n        return _to.sub(_from).mul(BONUS_MULTIPLIER);\n    }\n\n    function updateMultiplier(uint256 multiplierNumber) public onlyOwner {\n        BONUS_MULTIPLIER = multiplierNumber;\n    }\n\n\n}",
  "sourcePath": "/home/trakers/Documents/crypto/poolify-v2/Truffle/contracts/protocol/PoolifyChef.sol",
  "compiler": {
    "name": "solc",
    "version": "0.8.11+commit.d7f03943.Emscripten.clang"
  },
  "schemaVersion": "3.4.4",
  "updatedAt": "2022-02-24T12:38:21.910Z",
  "networkType": "ethereum",
  "devdoc": {
    "kind": "dev",
    "methods": {
      "constructor": {
        "params": {
          "_plfy": "the POOLIFY Token",
          "_poolifyPerBlock": "number of PLFY per block"
        }
      },
      "deposit(uint256,uint256)": {
        "params": {
          "_amount": "to deposit.",
          "_pid": "The index of the pool. See `poolInfo`."
        }
      },
      "emergencyWithdraw(uint256)": {
        "params": {
          "_pid": "The index of the pool. See `poolInfo`."
        }
      },
      "owner()": {
        "details": "Returns the address of the current owner."
      },
      "pendingPoolify(uint256,address)": {
        "params": {
          "_pid": "The index of the pool. See `poolInfo`.",
          "_user": "address of user"
        }
      },
      "renounceOwnership()": {
        "details": "Leaves the contract without owner. It will not be possible to call `onlyOwner` functions anymore. Can only be called by the current owner. NOTE: Renouncing ownership will leave the contract without an owner, thereby removing any functionality that is only available to the owner."
      },
      "transferOwnership(address)": {
        "details": "Transfers ownership of the contract to a new account (`newOwner`). Can only be called by the current owner."
      },
      "withdraw(uint256,uint256)": {
        "params": {
          "_amount": "of lp tokens to withdraw.",
          "_pid": "The index of the pool. See `poolInfo`."
        }
      }
    },
    "stateVariables": {
      "totalAllocPoint": {
        "details": "Total allocation points. Must be the sum of all allocation points in all pools."
      }
    },
    "version": 1
  },
  "userdoc": {
    "kind": "user",
    "methods": {
      "PLFY()": {
        "notice": "The Poolify ERC-20 contract."
      },
      "deposit(uint256,uint256)": {
        "notice": "Deposit LP tokens to Poolify Factory for PLFY allocation."
      },
      "emergencyWithdraw(uint256)": {
        "notice": "Withdraw without caring about rewards. EMERGENCY ONLY."
      },
      "isDuplicatedPool(address)": {
        "notice": "Returns if stakeToken is duplicated"
      },
      "pendingPoolify(uint256,address)": {
        "notice": "View function to see pending PLFY on frontend."
      },
      "poolInfo(uint256)": {
        "notice": "Info of each pool."
      },
      "poolLength()": {
        "notice": "Returns the number of pools."
      },
      "setPoolifyPerBlock(uint256)": {
        "notice": "set the number of PLFY per block"
      },
      "stakeTokens(uint256)": {
        "notice": "Address of the ERC-20 for each Pool."
      },
      "userInfo(uint256,address)": {
        "notice": "Info of each user that stakes tokens."
      },
      "withdraw(uint256,uint256)": {
        "notice": "Withdraw LP tokens from MasterChef."
      }
    },
    "version": 1
  }
}